:100000008015002095070000253C000081070000B6
:100010008107000081070000810700000000000048
:100020000000000000000000000000005509000072
:100030008107000000000000F108000081070000B7
:10004000090B0000090B0000090B0000090B000060
:10005000090B0000090B0000090B0000090B000050
:10006000090B0000090B0000090B0000090B000040
:10007000090B0000090B0000090B0000090B000030
:10008000090B0000090B0000090B0000090B000020
:10009000090B0000090B0000090B0000090B000010
:1000A000090B0000090B0000090B0000090B000000
:1000B000090B0000090B0000090B0000090B0000F0
:1000C000090B0000090B0000090B0000090B0000E0
:1000D000090B0000090B0000090B0000090B0000D0
:1000E000090B0000090B0000090B0000090B0000C0
:1000F000090B0000090B0000090B0000090B0000B0
:10010000094A034610681279012191400269126878
:10011000114218BF83F0010313B18368DB681847ED
:1001200083681B69FBE700BF08000020F7B5224D7C
:10013000286804F027F800283BD0204C206804F001
:1001400021F8002835D04FF40031284603F0FBFB9E
:100150000020FFF7D5FF4FF48031204603F0F3FB7A
:10016000174D206826790769836801A95B6898475D
:1001700040B9019B3A685A400123B3401A4214BF68
:1001800001200020012806D1FFF7BAFF4FF480308C
:10019000002102F0FBFF0020FFF7B2FF0D210C2031
:1001A00003F0E6FB0D2203460C21284603F0E4FB96
:1001B000D7E7002003B0F0BD0800002000000020B9
:1001C000E8470000014B1B68184700BF10000020E3
:1001D000014B1860704700BF1000002030B585B09B
:1001E00004460D4610220021684604F055F902230A
:1001F0008DF802302A46044B01932146684603F0ED
:1002000045F905B030BD00BFC501000080B5054609
:100210000E461746984602F0D3FF034604F044F911
:10022000DFF81890044649F8003042463046394617
:10023000A84754F8090000F02DFB00BF080000009B
:100240002DE9F047058B04462807904611D4022972
:1002500005F0070540F0CD80204603F003FC78B19F
:100260000138218B042811D8DFE800F0C3106D8518
:10027000950001290CBF45F0100545F020052583A8
:1002800088F31188BFF36F8FBDE8F08701F0070A8C
:10029000AA4500F0A6800027B9463E46A368002B79
:1002A00000F0BD8041F00801218388F31188BFF37D
:1002B0006F8FA168002900F0BB800D68002900F055
:1002C000B780D1F80480334652462046C047002DFF
:1002D00076D02B6829461D46F0E701F007035A1F28
:1002E000012A1BD8002221F00701062B276889B2BA
:1002F000C4E9002209D13B4603E0628B01326283EC
:100300001B68002BF9D141F002012183204603F044
:10031000A9FB00287BD041F0200177E0042B0AD113
:1003200021F0070189B22183204603F09BFB10B125
:1003300041F020012183218B01F0070AAA4550D00A
:100340000027B946AAE7236921F0070141F0060119
:10035000062DD3F8009021832DD1B9F1000F40D0A4
:1003600041F00801218388F31188BFF36F8F3A4968
:100370002046C84729E021F00701236941F0040124
:1003800089B2042DD3F804902183E6D000273E469D
:100390004FF0040A82E721F00701236941F00501CB
:1003A00089B2052DD3F808902183D6D000273E4688
:1003B0004FF0050A72E700273E464FF0060A6DE748
:1003C0002B4687E7B9F1000FD1D14FF02003EFF3AF
:1003D000118883F31288BFF36F8F238B23F00803F8
:1003E0002383258BEA062ED525F01003238305F001
:1003F00007056669218B002EBFF66FAF00232768C3
:10040000C4E9003321F0070141F001012183218B70
:1004100001F0070AAA454FF000097FF43FAF002F13
:100420009BD041F00801218388F31188BFF36F8FBF
:10043000002FC7D03D68394633465246204603F068
:100440003DFB2F46F4E7AB067FF51AAF25F02003FE
:10045000238305F00705FFE6E93A0000014B03603E
:1004600000207047D846000030BFFFF7FDBF00BF37
:10047000114B124A2DE9F041D518DFF84480013DB7
:10048000B5FBF3F55D430F4B08EB0304013CB4FBF4
:10049000F3F403FB04540E1B07460B49304603F0EC
:1004A000EDFF701942460021083E03F0F5FF3E675C
:1004B00004F10800BDE8F081010000000000000028
:1004C0000400000004000000CC460000044B9968C2
:1004D0005869884203D003494FF080520A60704740
:1004E0007003002004ED00E070B5264B15469A6AB3
:1004F00012F0100F9A6A14BF1124102412F0080F82
:100500009A6A18BF1224920706460AD5586B9A6A4F
:10051000140634D519B19A6A22F080029A62132423
:1005200001E06FF01500174B9A6A12F0010F9A6AFA
:1005300018BF142412F0200F9A6A18BF1524D2068F
:1005400002D49B6A9B070AD50E4B5B68190506D53A
:10055000314600F07BFA10B180F309880224094B80
:100560009A6A920642BF5A6A22F400525A629A6A02
:1005700042F0FF029A6200232B70204670BD6FF09C
:100580001500CCE700ED00E0134B9A6A12F0007FF3
:100590009A6A14BF1E201D2012F0807F9A6A18BF2D
:1005A0001F2012F4002F9A6A18BF212012F4802F06
:1005B0009A6A18BF222012F4003F9A6A18BF2320BB
:1005C00012F4803F9A6A6FEA02426FEA12429A621C
:1005D00018BF2420704700BF00ED00E010B5194B94
:1005E0000246986A9C6A10F4805F14BF1720162098
:1005F00014F4006F9C6A18BF1820A40509D5986BE5
:10060000986A000404D51AB19A6A22F400429A62E8
:1006100019200C4B9A6A12F4806F9A6A18BF1A203C
:10062000D2050CD49B6A13F4005F18BF1C20054A46
:10063000936A43F47F43936200230B7010BD1B2029
:10064000F5E700BF00ED00E0F0B5484B5B688BB00C
:100650000446C3F30803002585F31188BFF36F8FA9
:1006600002F07F40B0F17F4F11D102F00C0008285A
:100670000DD010074CBF0C4601250022033B8DF81E
:100680000720032B05D8DFE803F0246367602C46BE
:10069000F3E700239DF80720CAB902AE04F1200752
:1006A00020686168324603C20834BC421646F7D15E
:1006B000099A002D54D0C2F3080121B96FEA5222E1
:1006C0006FEA4222099202A9184603F0A5FA0BB07C
:1006D000F0BD264BDA6A9107DBD4DA6A002AD8DB50
:1006E000DA6A5200D5D55A69A16942F480725A611A
:1006F000BFF34F8FBFF36F8F5A6931F8021C22F49A
:1007000080725A61BFF34F8FBFF36F8F4DF6027245
:1007100091420AD09A6AD2B24AB10DF10702012180
:100720002046FFF7E1FE0346B4E72368B2E79A6A82
:1007300012F47F4F05D00DF107010120FFF74EFFA6
:10074000F1E79B6AB3F5803FA3D3FFF71DFFEAE70C
:100750000DF107020021E3E70DF107010020EDE7AD
:1007600022F4FF7222F00102ACE700BF00ED00E0CE
:10077000024A536943F010035361704700ED00E0F3
:10078000EFF30880EFF3098101B57246FFF75CFFD4
:1007900001BD00BF002080F31488BFF36F8F00F00D
:1007A000FDFA00200D490860BFF34F8F0C4880F31D
:1007B000088800F03DF8202080F3118809484FF4A4
:1007C0000461401880F30988EFF314800221084384
:1007D00080F31488BFF36F8F00F000F994ED00E010
:1007E00080150020C0070020BFF34F8F0549064B3E
:1007F000CA6802F4E0621343CB60BFF34F8F00BFBF
:10080000FDE700BF00ED00E00400FA050749D1F85C
:1008100090200023C2F307221846934200DB704762
:10082000C1F89830C1F8A0000133F6E700ED00E010
:1008300008B572B6002383F31388FFF7E7FF144B64
:100840004FF0FF32C3F88020C3F88420C3F888201B
:10085000C3F88C20C3F89020C3F89420C3F89820E4
:10086000C3F89C20C3F88021C3F88421C3F88821F1
:10087000C3F88C21C3F89021C3F89421C3F89821C0
:10088000C3F89C2162B6BFF34F8FBFF36F8F08BDD3
:1008900000E100E0084B9B6883420BD1EFF3058336
:1008A00043B1064B5A6842F080525A605A6A22F4A9
:1008B00000425A6203F044BD7003002000ED00E0E6
:1008C000094A93686FF00A019967084958674B68AD
:1008D00043F080534B60002383F31188BFF36F8F85
:1008E0009368986F704700BF7003002000ED00E030
:1008F00015498A684FF030001044EFF3098C80E806
:10090000F01F202080F31288BFF36F8F0F4F4FF03E
:1009100000664A698A603E604FF0700414192068CE
:100920000B4C2060506F0023536780F3118804B58F
:10093000104600F009F9BDE8044002F1300090E8EB
:10094000F01F8CF3098870477003002004ED00E06D
:10095000100200201EF0040F0CBFEFF30880EFF32D
:100960000980816911F8021C0229FFD001B503F04A
:1009700055F901BD40B2002807DB044A41090123B3
:1009800000F01F00834042F82130704700E100E092
:10099000054B420900F01F0053F82220012303FAFF
:1009A00000F01040704700BF00E100E040B20028B6
:1009B000A8BF00F1604001F10101B8BF064B4FEA4A
:1009C0004111ACBF00F5614000F00F00C9B2B4BFE7
:1009D000195480F80013704714ED00E00B4A08B575
:1009E0000B4B22F07F029A60BFF34F8FBFF36F8FE4
:1009F000D3F8882022F47002C3F8882001F094FF15
:100A000002F0E4FB00F074F801F0E0FF00000000E9
:100A100000ED00E042F8203C009B42F81C3C0A49F3
:100A2000019B42F8183C029B42F8143C21F0010162
:100A30004FF0807342F8043C42F8081C0023203A2F
:100A400002654367704700BF0D020000094A034674
:100A5000906870B113F1160F006E05D0A0F140023E
:100A60009A4205D8834203D2814228BF00207047B2
:100A7000002070477003002008B514460A4A0B4B4B
:100A80009060026F1A600D4600F05EF8204685F314
:100A90000988002163B681F31188BFF36F8F0022AC
:100AA0000023FFF7B3FB00BF7003002010020020FB
:100AB000014910220A60704710ED00E072B6404014
:100AC00080F31188BFF36F8FBFF34F8F30BF62B6D3
:100AD000BFF36F8F704700BF72B6494081F3118832
:100AE000BFF34F8F20BF80F3118862B6704700BFFD
:100AF000044800232021C2180133302B82F8001350
:100B0000F9D1704700E100E001B5EFF30580A0F1F5
:100B100010004FEAC0000449014409C99847BDE8E4
:100B200001400249084700004C450000CD04000088
:100B3000024B034A0348012100F040B800000220A4
:100B400000000020D8460000026E054B403A1A60B3
:100B5000044A4021C3E901121846012100F038B8C7
:100B60001402002000000B15084AC2F898000B6818
:100B700023F01F03034343F01003C2F89C308B683B
:100B800043F00103C2F8A030704700BF00ED00E061
:100B9000044B0522C3F89420BFF34F8FBFF36F8F30
:100BA000704700BF00ED00E0BFF35F8F024B0022F3
:100BB000C3F89420704700BF00ED00E010B5034C6F
:100BC0000123227803F049F8207010BDA003002013
:100BD00008B5094A0023127803F03FF810F1160F08
:100BE00003D0064B0022072800DD08BDC3F898009B
:100BF000C3F8A0200130F6E7A003002000ED00E0DC
:100C0000F0B5454D2C68082C85B000F28280FFF7C6
:100C1000CBFF00200C2684420DD1404D404F2C705C
:100C20006846FFF71BFC00240646A6420AD1FFF7E0
:100C3000AFFF00201CE0696806FB0011FFF794FF7E
:100C40000130E8E7009800EB04114FEA041CCB6880
:100C50003B40B3F5000F4AD00CD8B3F5001F30D09D
:100C6000B3F5800F38D0B3F5801F12D06FF01500A8
:100C700005B0F0BDB3F1807F42D0B3F1007FF5D174
:100C800050F80C3088684A6802F0D7FF40F48020A2
:100C900009E050F80C3088684A6802F0CEFF40F056
:100CA000885040F43020039028780728CDE90123AC
:100CB000DCD801A9FFF758FF2B7801332B700134E2
:100CC000B3E750F80C3088684A6802F0B6FF40F08D
:100CD000885040F40020E6E750F80C3088684A68F5
:100CE00002F0ABFF40F0E06040F40030DBE750F88A
:100CF0000C3088684A6802F0A0FF40F08270D2E7AA
:100D000050F80C3088684A6802F097FF40F088700D
:100D1000C9E74FF0FF30ABE7E4460000A003002036
:100D20000000F0FF08B5024B1B689847002008BD83
:100D300020020020034B044A1860937843F002031A
:100D400093707047200200201400002008B5064967
:100D5000064821F00701C1F1005202F5003202F00D
:100D600044FE002008BD00BFC7150020240200205B
:100D7000044A0123C2F840354FF080420020C2F8F7
:100D80007835704700E0014020B1034B800143F00B
:100D900001031847704700BFD046000000F0B2BF03
:100DA000084B70B5C31A0D4607499B1004465943BA
:100DB0000648402202F0A0FF2B4601462046BDE82F
:100DC0007040184744020020B76DDBB6FC440000B9
:100DD00073B50C4C0C4A4023041B00930D460B4684
:100DE0000A49A41061430646094802F0B2FF011EF9
:100DF00005DA30462B4602B0BDE87040184702B015
:100E000070BD00BF44020020BF3D0000B76DDBB6DF
:100E1000FC440000002270B5012104461046FFF793
:100E2000C5FD0F4801F05EF80E4B984215D101F058
:100E300069F826690C49304602F064FE00280BDB95
:100E4000012535642469084904F11C0002F05AFEAA
:100E5000002801DBE564002070BD6FF00400FBE7B3
:100E6000A10E00000000AD0B0447000070B5014664
:100E70000C2309484B43C418D4E90E5640330022D2
:100E80001844A26302F025FF2DB132462B460348D9
:100E9000BDE87040184770BD44020020FC440000CB
:100EA00010B1012804D07047034B1B6C5B0701D1C4
:100EB000FFF7DCBF704700BF4402002008B54FF0C9
:100EC0002003EFF3118183F31288BFF36F8F124A6F
:100ED000136843F002001060DA0708D481F3118828
:100EE000BFF36F8F0120BDE8084001F01DB84FF03F
:100EF0008043D3F80C24D3F80C34DB07EED5074835
:100F000002F0E7FE81F31188BFF36F8F0020BDE888
:100F10000840FFF7ABBF00BF94020020840200200E
:100F20001FB500220123CDE90223094ACDF800D0E4
:100F30006B46CDF804D002F03BFF002805DB4FF4F0
:100F400080420023684601F05FFE05B05DF804FBB7
:100F5000DD3D000010B54FF02003EFF3118483F363
:100F60001288BFF36F8F074A136823F00201DB0773
:100F7000116002D4012003F077F884F31188BFF3E5
:100F80006F8F10BD940200202DE9F0413849BFF366
:100F90005B8F0746012251E8003F41E8002000280E
:100FA000F9D1BFF35B8F33B9324933484B60CB6023
:100FB0008A6002F0BAFD7B1E012B2BD8012F07D1CE
:100FC0004FF08043D3F81C3403F00303012B21D0EE
:100FD00003F0E7F80546F8B9284B1B78E3B14FF06A
:100FE00080430222C3F808230646DFF894804FF0BE
:100FF0008044D4F81824D4F81834D20316D503F05A
:101000000303012B01D0012F10D15DB386F31188AA
:10101000BFF36F8FBDE8F0814FF02003EFF311862F
:1010200083F31288BFF36F8F0125DEE7ADB1304641
:10103000FFF752FDD4F81835002BDAD1D4F804218B
:10104000002AD6D0C4F80431D4F804310123C4F8FE
:101050001835C8F88031A360CBE70021212002F0C9
:1010600095F8E7E74FF080430222C3F80423D1E765
:10107000400200203002002060020020B307002060
:1010800000E100E008B5074803F07CF838B10648F5
:10109000FFF750FE0448FFF79BF8002008BD6FF0F3
:1010A0001200FBE738450000AD1000000A2838B5F3
:1010B000074D044604D1AB680D215B68284698476C
:1010C000AB6803485B68E1B29847204638BD00BF73
:1010D00038450000F0B54068057B01F01F0444EA84
:1010E0004514056987B0002D64D0B2F5001F00F1EA
:1010F000100506D12146284603F036F8002007B037
:10110000F0BD01AE0027B2F5800F0197776039D1AD
:10111000B3F1007F14BF052304238DF804300023AE
:10112000CDE904630393836823FA01F111F001010F
:101130001AD1B2F1A07F17D104F01F03620903F5A1
:10114000E0732AD0012A3BD11F4A52F82330DB0733
:101150000AD40DF1030632462146284601F0C0F9B3
:101160001A4B98421CD0029603AA2146284601F049
:1011700079F8174B984220D101222146284601F0E8
:1011800017FABBE7B3F1C06F05D0B3F1007F14BF0E
:1011900001230223C1E70323BFE74FF0A042D4E7B6
:1011A0003146284601F0FEF9094B9842DBD06FF03A
:1011B0000B00A4E76FF08500A1E76FF015009EE734
:1011C00051F82330FFDE00BF000300500400AD0BD8
:1011D0000000AD0B38B545682B69B3B11035284612
:1011E00001F0D0F9044680B90146284601F092F991
:1011F000084B98420BD108492246284601F06AF96B
:10120000224605210620FFF7D1FB002038BD6FF0F4
:101210000400FBE70000AD0B1D120000420970B591
:10122000034602D0012A17D070BD0D4E32695168B5
:101230000029F9D003F01F0301250C689D40002907
:10124000F2D08A682A4002D04B68304698472CB1C9
:10125000236821461C46F2E7024EE7E72346F8E7FB
:1012600024450000104500002DE9F043466840F297
:101270000635D006337B87B002EA050554BFC2F3BA
:101280004010032001F01F07B5F5837F144647EA9D
:1012900043178DF8030044D00FD8062D18D007D877
:1012A000B5B1022D3FD06FF0150007B0BDE8F08357
:1012B000B5F5807FF7D101250AE040F20222954280
:1012C00033D0B5F5407F32D0B5F5007FEBD10225A4
:1012D00022032ED5726801238B40C2F8083532698B
:1012E00092BB07F01F037F092BD0012F79D13F4A12
:1012F00002EB830284F48033D2F80017C3F3004377
:10130000C4F3404444EA430421F4E16144EA800424
:1013100021F0070144EA05230B43C2F800370020FF
:10132000C3E70725D4E70425D2E70525D0E7032541
:10133000CEE7630341BF012372688B40C2F80C35CE
:10134000CDE74FF0A042D3E710360DF10202394647
:10135000304601F0C5F814F4403F80460CD13946C0
:10136000304602F0FFFE224B9845D8D19DF802107E
:10137000304601F011F9D2E701AB4FF0000903AAA2
:1013800039463046CDE90439CDE90199CDF80C90C4
:1013900000F068FF164B984285D114F4003315D045
:1013A0009DF803308DF80E3084F48034C4F300448B
:1013B0004B4603AA394630468DF80C508DF80D4047
:1013C00001F00AF80A4B9842CDD06CE7CDE904331E
:1013D00003AA0DF1030339463046039300F042FFA0
:1013E000F0E703F5E07352F82330FFDE000300500E
:1013F0000000AD0B036803F01F025B09026004D01C
:10140000012B034818BF002070474FF0A0407047E1
:10141000000300502DE9F04FDFF85C81DFF85C91AC
:1014200085B01546824600EB8101514503D100206D
:1014300005B0BDE8F08FDAF80030D804C3F34322DA
:1014400003F07F0400F192807F2C4FEA134318F8D9
:10145000027008BF4FF0FF34192B00F28A80DFE8DA
:1014600003F00D141A1D20261D888888883763888C
:101470008888888888888888667C7F82C5F80C453B
:10148000621C5ED10AF1040ACFE7C5F81445631C5B
:10149000F8D000265FE0C5F80845F1E7C5F810452B
:1014A000F5E7661CC5F80845ECD0002604E0601C92
:1014B000C5F80C45E6D0012603A80394FFF79AFF70
:1014C000039B4FF0010B0BFA03F3C0F80C3508E057
:1014D000C5F80845002FDAD1631CD3D00026B346E7
:1014E0000627DAF80030019303F40052002A03A81B
:1014F0001CBF4FF0000B01260394FFF77BFF039AFC
:10150000019B00EB8200C3F3C114D0F800273B021B
:1015100043EA840343EA0B0302EA0902134343EA62
:101520004603C0F80037ADE7C5F80C45D2E7C5F86B
:101530006045621CDAF80030A4D0C3F38033002B7E
:10154000B9D003A80394FFF755FF039B012606FAC1
:1015500003F3C0F80835B346C3E7C5F86445E8E7C8
:10156000C5F86845E5E7C5F86C45E2E76FF015009A
:101570005EE76FF085005BE72F480000F0F8FCFFA6
:101580002DE9F7430646002201210220FFF70EFA5B
:101590000220FFF7EFF9776835693C684FF00008E3
:1015A000C4F800852E60D7F80C9001AA4146484641
:1015B00002F06CFC00283FDB019BD9F80020197970
:1015C0001868FFF727FF002836DB6B7AD6F810C0C3
:1015D000012B03D0032B2DD14FF01008AB7A032B36
:1015E00028D195F80BE0BEF1000F02D0BEF1010F3B
:1015F00020D12A7A012A22D0022A24D0D2B9104638
:101600006B687168B3F5164F096800F0BA803AD874
:10161000B3F5165F00F0B88020D8B3F5966F00F0F0
:10162000B58012D8B3F5967F00F0B380B3F5167F7E
:1016300000F0B2806FF0850003B0BDE8F0834FF496
:1016400080700E22DCE70020FBE7B3F5166F00F098
:10165000A680B3F5965FEDD15D4B43E0B3F5E14F66
:1016600000F0A08008D8B3F5615F00F09D80B3F56D
:10167000964FDFD1574B35E047F612294B45D9D16C
:101680004FF400032EE0B3F5613F00F08F8015D8D2
:10169000B3F5963F00F08D800AD84DF6C0294B4532
:1016A00000F08980B3F5614FC4D14FF46B0319E0AA
:1016B000B3F5E13FBED14FF0EB7313E0B3F5612F0B
:1016C0007CD009D8DFF810914B457AD0B3F5E12FE3
:1016D000B0D14FF0E86305E0DFF800914B45A9D1A8
:1016E0004FF08053C1F82435736840EA0E001B6840
:1016F00042EA08021043C3F86C05D5E901010CF178
:10170000040383E803007B68990712D505F11800EC
:1017100001F07AF8324B984256D1287E04F10C023F
:1017200004F5907102F03CFC2B7E0120984000F003
:10173000D3FB0823C4F800353B7A53B9C4F8103101
:10174000D4F810316B69C4F834350123C4F8383546
:1017500023607B689A075CBF4FF48073C4F804333E
:101760007B68DB0644BF4FF48003C4F804332B6965
:10177000C4F8443500200123C4F84805A360E360A1
:101780005AE74FF41D03ADE7164BABE74FF49E232A
:10179000A8E74FF4A033A5E74FF41C33A2E74FF4BA
:1017A0001D239FE7104B9DE7104B9BE74FF06C7399
:1017B00098E70F4B96E74FF4650393E74FF070639C
:1017C00090E74FF080638DE76FF0040034E700BFCF
:1017D00000B0130000A04E0090D0030040420F0064
:1017E0000000AD0B0050270000C0750000F03A006B
:1017F00000903A01F8B5044607690D4602F0D1FCA5
:10180000B0B92E4B1B789BB16426606802F06CFB6C
:1018100000BB012002F0C2FB013EF6D100212120D5
:1018200001F0B4FCF0E786F31188BFF36F8FF5E7A2
:101830004FF02003EFF3118683F31288BFF36F8F0D
:101840006068314602F050FB90B986F31188BFF30F
:101850006F8FEDE74FF02003EFF3118683F31288CB
:10186000BFF36F8F6068314602F03EFB0028DAD08C
:101870003B691D70626838691368C3F8440501202C
:10188000C3F848050020C3F82001D3F82051C3F85D
:1018900058015268D3F85801D20608D56268126818
:1018A0000820C2F800054FF48002C3F80423012287
:1018B0009A6081F31188BFF36F8FF8BDB3070020E2
:1018C00070B5012383400E4ABFF35B8FDC4352E8BF
:1018D000001F01EA040542E80056002EF7D1BFF3CD
:1018E0005B8F4FF4803282400648C0F80823BFF374
:1018F0005F8FBFF36F8F0B4214BF0120002070BDBC
:10190000B40200200010014070B40E49D1E9003447
:10191000D01AC31844F1000422F07F46C1E9003414
:10192000A6F50013B3F5400F09D2074B1B681A0A3E
:101930001B069C19054B42F10005C3E9004570BC2C
:1019400001F01ABDE0000020B8020020E8000020ED
:1019500011B3BFF35B8F0123104A834052E800CFDD
:101960004CEA030C42E800C10029F7D1BFF35B8FBA
:101970000B4A4FF480338340C2F80433094BBFF362
:101980005B8F1B68BFF35B8FC340DB0742BF064B17
:101990004FF40032C3F80021704700BFB4020020AA
:1019A00000100140B002002000E100E00D4B18687B
:1019B000010A0006BFF35F8F0B4BD3F804351818EC
:1019C00041F10001B3F5801F0AD2084BD3E900238F
:1019D000904271EB030303D210F1807041F10001DA
:1019E000704700BFB802002000100140E80000204E
:1019F0002DE9F04F85B016461F469DF840A00446DD
:101A0000FFF75EFF0190FFF7D1FFB04271EB0703D4
:101A100054D23E4B301A67EB0101984271F100013C
:101A20004FD23B4B03EB0413D3E902239F4208BF81
:101A300096425ED037494FF4803804F1500508FAD9
:101A400004F8AD00C1F848832046ADB202F095FA23
:101A500026F07F4B05F1804504F5A87305F5883520
:101A6000DC464FF003090293029A2CF07F4341F8C1
:101A70002230C1F84483D1F80435274A6FF00200C0
:101A8000C01A604420F07F40904232D9286868B183
:101A9000D1F804350393A3EB0B0020F07F40B0F5A1
:101AA000000F26D9204602F068FA039BBAF1000F16
:101AB00007D109EB030C09F10109D5E7BAF1000FD1
:101AC00009D06FF0150520460199FFF741FF284620
:101AD00005B0BDE8F08F0123104ABFF35B8FA34030
:101AE00052E8000F184342E800010029F8D1BFF383
:101AF0005B8F07490E98230101EB0412C8500F9B1E
:101B00005360C2E902670025DDE700BF01008000E5
:101B1000D000002000100140FDFF7F00B002002037
:101B20007FB51C4C1C4BC4F80833C4F848331B4B1E
:101B300000254FF0FF304FF0FF31C4F80855C3E9DE
:101B400002014FF48033C4F80433154B02264FF4DE
:101B500000320121C4F804631120C3F880212A4611
:101B6000FEF724FF1120FEF705FF0E4A0123A360B4
:101B7000236013600C4B0D4A0093CDE901550023FF
:101B80002846FFF735FF3046FFF7FEF9284604B038
:101B900070BD00BF0010014003000F00D000002006
:101BA00000E100E0B402002009190000FFFF7F00FF
:101BB0002DE9F7432F4CD4F8043399070BD5D4F80B
:101BC000043143B12C4A0023C4F80431D4F8043161
:101BD000136801331360D4F80433DA032AD5BFF352
:101BE0005B8F264B53E8002F22F0010143E80010E1
:101BF0000028F7D1BFF35B8FD30702D4D4F840316C
:101C0000C3B10025C4F84051D4F84031FFF7CEFEEF
:101C10004FF02003EFF3118283F31288BFF36F8F2D
:101C2000174BD3E90267B042B94106D282F311885B
:101C3000BFF36F8F03B0BDE8F0834FF0FF384FF074
:101C4000FF39C3E90289D3E900101D604FF48033E6
:101C5000C4F84833C4F84051D4F8403182F31188B5
:101C6000BFF36F8F0029E5D0009032463B462846EF
:101C70008847DFE700100140B8020020B0020020D2
:101C8000D000002030B5431C124C85B005D08442F2
:101C9000A8BF0446012CB8BF0124FFF787FE0E4BF6
:101CA0000C4DD3E90013401AB0F5000F10D22218E2
:101CB000AA4228BF2A4652184FF000000749009157
:101CC000CDE9010043F10003FFF792FE05B030BDFE
:101CD0002A46F0E7FFFF7F00E0000020091900001E
:101CE00008B5FFF763FE024B1B68C01A08BD00BFB2
:101CF000E0000020024AD2F80034002BFBD07047ED
:101D000000E0014010B54FF08053D3F830210D2A88
:101D100055D14FF080410022C1F80C21C1F81021AB
:101D2000C1F83825464AD3F80404C2F82005D3F890
:101D30000804C2F82405D3F80C04C2F82805D3F827
:101D40001004C2F82C05D3F81404C2F83005D3F8F7
:101D50001804C2F83405D3F81C04C2F84005D3F8BF
:101D60002004C2F84405D3F82404C2F84805D3F887
:101D70002804C2F84C05D3F82C04C2F85005D3F857
:101D80003004C2F85405D3F83404C2F86005D3F81F
:101D90003804C2F86405D3F83C04C2F86805D3F8E7
:101DA0004004C2F86C05D3F84434C2F87035D1F859
:101DB0000034DB0709D56FF00103C1F800344FF0A0
:101DC0008053D3F830310D2B0CD14FF08053D3F822
:101DD00034313BB14FF01023D3F808224FF0804349
:101DE000C3F858254FF01023D3F80022002A03DB54
:101DF000D3F80432002B22DA124901234FF01020CD
:101E0000C1F804351224FFF775FFC0F80042FFF750
:101E100071FFC0F80442FFF76DFF0023C1F80435DD
:101E2000FFF768FFBFF34F8F0749084BCA6802F4FA
:101E3000E0621343CB60BFF34F8F00BFFDE710BDDF
:101E400000C0004000E0014000ED00E00400FA05A1
:101E500030B50468CCB1BFF35B8FB4FA84F3C3F13F
:101E60001F03DBB201229A4024EA020250E8005F1D
:101E7000A54204D140E8002CBCF1000FF6D1BFF31D
:101E80005B8FE6D102480B7030BD0248FCE700BF13
:101E90000000AD0B0200AD0B10B50368CB40DB07B3
:101EA00014D401238B400268BFF35B8F43EA020125
:101EB00050E8004F944204D140E8001CBCF1000FF0
:101EC000F6D1BFF35B8FEED1014810BD0148FCE7AE
:101ED0000000AD0B0400AD0B014BC3F804057047C7
:101EE00000F00140044B1A7922B9012218601A71DE
:101EF0000248704702487047BC0200200000AD0B4A
:101F00000C00AD0B08B5074B1B682BB10020FEF78A
:101F10003FFD08B9FEF72EFD4FF080430022C3F8C5
:101F2000182508BDBC02002010B510B1012843D00F
:101F300010BD4FF08043D3F81814D3F81824C80309
:101F400021D502F00303012B04D013B1002002F0CD
:101F500031F800234FF080420220C2F818350822E1
:101F60004FF4827303F180430021196002F1804233
:101F70001C6801241460154A12680AB34FF08043AC
:101F8000C3F80403D4E7D3F81424D107E1D5D3F878
:101F90001C249207DAD40D4A12681AB10222C3F83F
:101FA0000423C5E7D3F80421002AFBD00022C3F89C
:101FB0000421D3F80431BBE700224FF48073D1E74A
:101FC0001A68002AFCD019601B68B1E7BC02002027
:101FD00010B54FF08043D3F8002152B10020C3F870
:101FE0000001D3F800210122C3F80823104B1B681D
:101FF00098474FF08043D3F8042172B10022C3F810
:102000000421D3F80421D3F81824D3F81824920714
:1020100004D10122C3F818259A6010BD0222C3F82A
:102020000823034BBDE810401B680120184700BF80
:10203000BC020020036803F01F025B09026004D0A9
:10204000012B034818BF002070474FF0A040704795
:1020500000030050034A430900F01F00D35C1844FA
:10206000C0B270474548000070B50546FFF7F2FF63
:102070000C4C08300E4634F81030DA0508D5C3F39E
:10208000432304EBC302284654F833305268984780
:10209000A3682BB1E26831462846BDE87040184776
:1020A00070BD00BF4000002008B5FFF7D3FF034B11
:1020B000083033F81000400B08BD00BF400000207E
:1020C00008B5FFF7C7FF034B083033F81000C0F323
:1020D000400008BD4000002008B5FFF7BBFF034BE0
:1020E000083033F81000C0F3401008BD4000002055
:1020F000034611F0010010B5CCB20DD1A207C4F314
:10210000400012D5094AD2F820055860C2F82005CF
:10211000003818BF012008E04FF0A041D1F8202579
:102120001A60C1F82025002AE8D010BD0003005035
:1021300010B5FFF78FFF124A083032F81030D9057A
:102140001CD5C3F3432123F4F85322F8103002F1D5
:102150000E04002034F8023F13F4807F03D0C3F351
:10216000432399420AD001302A28F3D1002342F8B0
:1021700031300448BDE81040FFF78EBE10BD00BFEF
:1021800040000020AC000020F0B5054600200446C9
:10219000012607468C420BD1114BD3F87C2132B17A
:1021A0000022C3F87C21D3F87C3140F00040F0BD20
:1021B000E3B29B0003F580729B0806FA03F31D420D
:1021C0000BD002F1804202F5C042D2F800C0BCF14F
:1021D000000F02D01760126818430134DAE700BF1D
:1021E00000600040F7B506460846FFF733FF194F79
:1021F00000F108050C4637F81530DB0727D53046C7
:1022000001F08CFF2046FFF767FF40B12046FFF743
:102210004BFF316800F5A270002341F820302046C2
:10222000FFF786FF002301A827F815300194FFF778
:1022300001FF019B00EB8300074BD0F80027134000
:1022400043F00203C0F80037044803B0F0BD04486F
:10225000FBE700BF40000020F0F8FCFF0000AD0BE2
:102260000400AD0B2DE9FF41164680460846FFF7F6
:10227000F1FE0D463168044609B32846FFF720FFFA
:1022800018B12846FFF728FF10BB0023CDE9003323
:102290008DF80E308DF80F300DF10F020B462846E9
:1022A0000DF10E0101F0E2FE474A04F1080132F897
:1022B000113023F0020343F0010322F81130736858
:1022C00063B328461F785968FFF7FAFE10B1D1B101
:1022D0003E4826E03C4A04F1080032F8103023F072
:1022E0002003DB04DB0C22F8103061B1032FEFD8A0
:1022F0007168496891F800C0D8F80010A7B90CF5CA
:10230000A27C41F82C70304A04F1080132F81130F7
:1023100023F01C0343EA870322F81130B3684BBB58
:102320002B4804B0BDE8F08101EB8C0143EA4C334B
:10233000D1F810E52EF0030EC1F810E5D8F8001022
:1023400001EB8C0E43F02003DEF8101522F810305C
:1023500021F44F3121F44071CEF810152902DEF836
:10236000108501F47C5141EA074141EA0801CEF8A9
:102370001015C8E7D3E900672846FFF7D9FE002EFD
:10238000CED0114DD5E90023964203D19F4201D111
:10239000002209E00F480DF10F01FFF759FD0C4B2A
:1023A0009842BED19DF80F2045F8326005EBC2037C
:1023B00008345F6035F8143043EA422343F48073F5
:1023C00025F81430ACE700BF400000200400AD0B3E
:1023D0000000AD0BAC0000202DE9F0430C4685B0A9
:1023E0008046204611461E46FFF734FE054629B3B7
:1023F0002046FFF765FE18B92046FFF76DFE18BBB3
:10240000314F05F1080937F8193013F01C0F02D0CD
:102410004B78012B18D001238DF80F300023CDE924
:1024200000134A1C8B1C20460DF10F0101F01EFE0B
:1024300037F8193043F0030327F81930002E41D044
:102440002046FFF73DFE18B9204805B0BDE8F083EF
:1024500096F800C0D8F800301B4F0CF5A27200218E
:1024600043F8221005F1080237F8121021F020017C
:10247000C904C90C27F8121075781DB3D8F80000EC
:10248000B67800EB8C002D04D0F8103523F49913A6
:1024900023F4F853C0F81035230203F47C5305F4F9
:1024A00040353605D0F810E52B4306F4801641EA96
:1024B0004C31334341F0200143EA0E0327F8121058
:1024C000C0F810350248C0E7400000200400AD0B02
:1024D0000000AD0B014BC3E9021270474000002021
:1024E00010B508461446FFF7F7FD50B10846FFF750
:1024F000B1FD054B083033F8103004485B0B2370F6
:1025000010BD0348FCE700BF400000200000AD0BF9
:102510000400AD0B70B5184E96F8744005464CBBE0
:102520002146542206F1100001F0B6FF2D68706EAE
:102530002146884212D10023C5F87C3145F307308B
:10254000D5F87C31FEF716FA4FF00043C5F8043396
:102550000A48012386F87430F36670BDCBB29B0045
:1025600003F580727C2B08BFAC5001F1010108BF5C
:10257000AB58DEE70248F0E7400000200000AD0B5A
:102580000C00AD0B034B93F87400003818BF01200A
:10259000704700BF400000200148FFF77DBC00BF2E
:1025A000A80000200148FFF753BC00BFA80000208E
:1025B00073B5054608460C461646FFF78DFD00B379
:1025C0000846FFF77DFD0146D8B92046FFF76CFDB0
:1025D00004B2A40004F5807203462868815029687B
:1025E00082582144D1F8102542F00102C1F810258B
:1025F0002EB12968012202FA03F3C1F8043302B0B4
:1026000070BD2046FFF726FD0F4B083033F8103021
:10261000C3F38203042B12D0052B12D001A801941E
:10262000FFF708FD019AD0F81035D34003F00103FD
:10263000991C204602B0BDE8704001F060BD032146
:10264000F7E70221F5E700BF400000202DE9F04F39
:10265000694BDFF8A881D3F80403D8F86410C0B23E
:1026600089B040F00040FFF78FFD051E2FDAC2460B
:1026700000235AF8701F06A8CDE90633FFF738FD8E
:102680005F4B01930DF118094FF0000B019A12F8FE
:10269000013B0192DA0803F007031AF8022022FA3C
:1026A00003F3DA071CD409F10409BBF1000F14D0BD
:1026B000D8F864104FF00040FFF766FDD8F87010AE
:1026C00006A8FFF715FD0028DAD125F00045012402
:1026D000002D79D109B0BDE8F08F4FF0010BD5E79F
:1026E000484B5B440293D9F800100029DBD0029BD1
:1026F00091FAA1F11C78B1FA81F141EA4414204623
:10270000FFF7A8FC0830059438F81070C808BB081B
:1027100019F80020039301F00701012303FA01F1E6
:1027200022EA010209F8002005A8FFF783FC059AB8
:10273000039B02F5E072C7F3820650F822205B0784
:102740003746C2F3014224D520463946D6B2FFF7B8
:102750008BFC05A80594FFF76DFC059B03F5E07362
:1027600050F82330C3F301439E4207D10021204695
:1027700001F0C5FC3146204601F0C1FC05A80594D6
:10278000FFF758FC059B012202FA03F3C0F820353D
:10279000A9E7022A0CD10321204601F0B0FC06F083
:1027A0000503012BEAD139462046FFF75DFCE5E73A
:1027B00002212046039201F0A2FC032EF3D0039ADB
:1027C000032ADBD1022EEDE795FAA5F3B3FA83F3E2
:1027D00004FA03F29B0003F1804303F5C04325EAAA
:1027E0000205D3F81005D3F81015C0F30520C1F386
:1027F0000141FFF739FC6BE700600040400000201A
:10280000554800005548000001460148FFF720BB2D
:10281000B800002008B5144BA8220021184601F08A
:102820003BFE0322026111494261114A8161C2618A
:102830004FF480620262002282624262C2620166DA
:102840000C4941661021816603460267C2664267F1
:10285000BFF35F8F084911F8010D98540132102A17
:10286000F9D1BFF35F8F08BDC402002057480000B4
:10287000B3030020A30300207048000038B54FF0D8
:102880002003EFF3118583F31288BFF36F8F064B9C
:102890009C6801F07EFB85F31188BFF36F8F2046A3
:1028A000BDE83840FDF7F6BF70030020104B70B54F
:1028B00053F82040013053F82060A64200D870BD84
:1028C000D4E9003595B153B12846984738B100286E
:1028D000B8BF4042EB68FF28A8BFFF201870EA6825
:1028E000537843F0010353700834E6E79847FBE759
:1028F000D047000008B50A4B012203201A70FFF7E9
:10290000D5FF00F0BDFD0420FFF7D0FF00F00CF96B
:10291000FDF70CFC034A137B23F00103137308BD7E
:10292000B30700207001002008B50348034A0021C6
:10293000121A01F032FC08BDD0000020B8070020B8
:1029400070B5002386B00122CDE90423194E1A4D3B
:1029500001930F22CDE902321849142303FB0055DD
:1029600006EBC01604464FF4C070154B00954FF4AB
:10297000A07200FB0411304600F096F8737B114AF8
:10298000EE6023F0040373734FF4046304FB03331A
:1029900013446B600C4B2C74BFF35B8F53E8001F28
:1029A000013143E80012002AF8D1BFF35B8F06B073
:1029B00070BD00BFF0000020700300200010002058
:1029C000AF410000C00700206C03002080B500204C
:1029D000A6B0FFF76BFF2D4B83F308882C4D2D4ECF
:1029E0006B692D4F43F400736B610024E02385F87D
:1029F0002230EC772C766C76AC7685F820406B6ACA
:102A000043F4E0236B6285F82340FDF7B1FEFEF747
:102A10004FF84FF0FF33AB62EB62FEF7F1F8FEF7D1
:102A200087F840F20113ADF8243006ABB360CDE96E
:102A30001E44219401F0A5FB0120FFF737FF02207F
:102A4000164DFFF733FF00F017FB154B756105932B
:102A5000012314490094CDE903434FF480623B46BF
:102A6000CDE90144284600F01FF86A7B064622F0B3
:102A7000040228466A7301F0E0FB2046FFF760FF7E
:102A80003A4631462846FDF7F7FF00BF0010002008
:102A900000ED00E070030020F52800007001002028
:102AA00071480000801100202DE9F04385B0073205
:102AB000994600F1580322F00706C0E91633109B2F
:102AC000037306F140050423002743730D440F9B55
:102AD00083738846C0E9067729468760C773044632
:102AE000FDF7C6FC08F140030730C4E9183620F0B2
:102AF00007000E9BA06602930D9B01932D1A0C9B61
:102B000000932A464B4641462046FDF783FF054B7E
:102B100067659B6803B1DB6EE366284605B0BDE8D8
:102B2000F08300BF7003002070B5224C224D86B0A8
:102B30002646AE4204F130040AD300F06DFA1D4C73
:102B40001E4EAC4220D306B0BDE8704000F078BA0B
:102B500054F80C3C059354F8103C049354F8143C7E
:102B6000039354F8183C029354F81C3C019354F816
:102B7000203C009354E90A2354E90C01FFF794FF29
:102B800054F8303C5E65D3E7D4E90A23B3F1FF3F44
:102B900008BFB2F1FF3F05D052EA0301206803D11C
:102BA00000F01CFA3034CCE73146183000F06EFBF0
:102BB000F8E700BFCC460000CC460000D54200003C
:102BC00038B504464FF02003EFF3118583F31288E4
:102BD000BFF36F8F01F082FB48B10022826701F0E2
:102BE0002CFB29460748BDE8384000F0E5B9D4E998
:102BF00002329A4218BF0133A36085F31188BFF3F4
:102C00006F8F38BDB407002013B54FF02004EFF3E9
:102C1000118184F31288BFF36F8F846844B1013C43
:102C2000846081F31188BFF36F8F002002B010BD64
:102C300052EA030406D181F31188BFF36F8F6FF05E
:102C40000F00F3E7CDE900230246024800F096F9B1
:102C5000ECE700BFB4070020C3897F2B12D80A4BD2
:102C60001B6863B1094B90F90E201B689A4209DB7F
:102C7000437BDB0606D1064BC31A18BF012303F0C2
:102C8000010070470023FAE7980300209403002016
:102C9000F0000020044BC01A044BC0105843044BF2
:102CA00001221A54704700BFF0010020ABAAAAAA63
:102CB000B407002070B50E4B0E4C1E7C06EB46038D
:102CC00004EBC3040546204601F05BFB0A4B0022DF
:102CD00028469A55FFF7C0FF48B1084B08491A68C3
:102CE000013A2046D317BDE8704000F0CFBA70BD5E
:102CF00070030020F0010020B4070020980300209A
:102D0000952C000038B50D4D2B4653F8184F9C42BA
:102D100000D004B9EC68AB6838B95A7BD20604D14C
:102D2000A26912B9DA897F2A05D89C4202D02046CE
:102D3000FFF7C0FF23466B6138BD00BF7003002062
:102D400070B590F90D20437B002A014604DA03F0A8
:102D50007F03437301F037FA4B7B154A63F07F031F
:102D600010464B7350F8183FD469834208BF0023C4
:102D700023B9C1E900042160D1610CE091F90E5042
:102D800093F90E60B5420ED0AE420CDD5868C1E931
:102D90000030016059609068431A5842BDE87040A5
:102DA0005841FFF7AFBF9C42E3D01B68E0E700BF8C
:102DB0007003002070B490F90D30427B002B29DBAA
:102DC000D30627D183692BBB134962F07F0242737C
:102DD0000A4652F8184F944218BF2346CC6923B9CB
:102DE000C0E900242060C8610CE090F90E5093F90E
:102DF0000E60B5420AD0AE4208DD5A68C0E9003222
:102E00001060586070BC0020FFF77CBFA342E7D081
:102E10001B68E4E770BC70477003002008B590F9A8
:102E20000D20437B002A014604DA03F07F0343733D
:102E300001F0C9F9044B9868431A58425841BDE85B
:102E40000840FFF75FBF00BF7003002070B5154654
:102E50001C46064601F0C9F9B4F1FF3F08BFB5F1C1
:102E6000FF3F08D02A46234606F118000249BDE874
:102E7000704000F00BBA70BDD54200002DE9F04162
:102E8000002A437B0E460CBF10210821194204463C
:102E90000AD10B43DD0903F09F0211D142730829C7
:102EA00014D00120FFF72EFF1B4B9B68A3422CD1AF
:102EB000EFF305834BBB3046BDE8F041FDF700BDA5
:102EC00003F01F03437301F07EF9E8E7A36813B131
:102ED000204601F080F904F1180001F052FA04F1E3
:102EE00058074FF00008A56DBD42DAD0002DD8D0AC
:102EF000284601F070F905F1180001F042FAC5F812
:102F000078802846FFF756FFEDE786F31188BFF378
:102F10006F8FBDE8F08100BF7003002038B54FF01F
:102F20002003EFF3118583F31288BFF36F8F104BEB
:102F3000104A9C681068A04206D1FFF7BBFE85F3DB
:102F40001188BFF36F8F38BD00211B7C11600A4AC6
:102F5000D35C002BF3D02046FFF77EFE0028EED096
:102F6000637BDB0602D12046FFF7EAFE2046E4E75A
:102F70007003002090030020B407002070B50C48B7
:102F80000C4D86682E600C461146DDE904234FF097
:102F90002006EFF3118586F31288BFF36F8F8068E8
:102FA000FFF754FF2046BDE87040FDF789BC00BF25
:102FB000700300209003002049B9EFF3058030B979
:102FC000054B5A699B689A4201D0FDF779BC81F3A1
:102FD0001188BFF36F8F70477003002010B54FF05A
:102FE0002002EFF3118482F31288BFF36F8F427BCC
:102FF000510704D484F31188BFF36F8F10BD22F002
:1030000004024273FFF7D6FE21460248BDE8104095
:10301000FFF7D2BFB50700204FF02003EFF3118177
:1030200083F31288BFF36F8F044B9A68D37B013B05
:10303000D37381F31188BFF36F8F70477003002043
:1030400010B54FF02003EFF3118483F31288BFF320
:103050006F8F084B9A68D37B0133D3730020FFF73F
:1030600051FE84F31188BFF36F8FBDE8104001F06B
:103070005DB900BF70030020024B03F11802C3E9E1
:103080000622704770030020F8B54FF02003EFF3DD
:10309000118583F31288BFF36F8F19498868437BCA
:1030A00003F07F03437301F08EF88B685A7B084668
:1030B00062F07F025A7350F8182FCC69824208BF21
:1030C000002222B9C3E900042360CB610CE093F92C
:1030D0000E6092F90E70BE420ED0B7420CDD516800
:1030E000C3E900210B6053600120FFF70BFE284667
:1030F000BDE8F840FDF7E4BBA242E3D01268E0E788
:103100007003002050EA01032DE9F04105460E4608
:1031100003D1FFF7B9FF00202CE0831C71F1FF33CE
:103120002ADB01F044F92C184FF02003EFF311884B
:1031300083F31288BFF36F8F114F124BB86818607A
:10314000FFF76CFEB86810492A463346183000F085
:103150009DF8BA68537B43F0100353734046FDF764
:10316000AFFB01F024F9201A63EB0303012873F18C
:103170000003D0DBBDE8F0816FF00104241AD3E72F
:103180007003002090030020D5420000B1F1FF3F02
:1031900008BFB0F1FF3F08B506D1084B986801F0B1
:1031A0005CF84FF0FF3008BDFFF7ACFF4FF47A73C7
:1031B00080FB0303C00B40EA4340F4E770030020A8
:1031C000014B9868704700BF7003002008B506489F
:1031D000064A0749121A00F0E2FFBDE80840054A16
:1031E0000549064800F0DBBF00000020CC000020AD
:1031F000B448000000000000B448000000000020B7
:10320000034B1B680BB9FEF76BBD0020704700BF76
:103210009C03002010B50E4B1C689C4204D1FFF7A4
:10322000EFFF6FF0004010BDFFF7EAFF002CF8D071
:10323000D4E904321B1A62EBE072B3F1004F72F171
:103240000001EEDA002AACBF18460020EBE700BF11
:10325000BC00002030B570B10B4B5B6898420AD0BF
:10326000036843B1D3E90421D0E90445121941EBC5
:103270000501C3E90421D0E9003213605A6000233C
:10328000C0E9003330BD00BFBC000020B3F1FF3FF8
:1032900008BFB2F1FF3FF8B504461D4616465CD0A4
:1032A00081604FF02003EFF3118783F31288BFF39F
:1032B0006F8F013275F1FF3324DA2D49D1E90020F7
:1032C0006FF001039B1A4FF0FF3262EB00009E1B70
:1032D00060EB0500012E70F1000301DA01260020E9
:1032E000C4E90460234ED6F800C07568B44508BF31
:1032F0004FF0000CBCF1000F0DD1C4E900652C604B
:1033000074601CE0FFF77CFF013645F100053618BC
:1033100045EBE070E4E7DCE90420D4E904319342B2
:1033200071EB000E1ADAD21ADCF8043060EB0100FF
:10333000CCE90420C4E900C31C60CCF80440336825
:10334000B34206D09C4204D1FFF764FF0021FEF790
:1033500099FC87F31188BFF36F8FF8BD9B1A61EB5F
:103360000001AC45C4E90431C7D0DCF800C0C1E7B6
:1033700008020020BC0000202DE9F84F4FF0200388
:10338000EFF3118C83F31288BFF36F8FDFF8B0A0D7
:10339000DFF8B0902C4FC9F80000DAF800000024E4
:1033A000504508BF00200025D7E90021D9F800309A
:1033B000E04680B3D0E9046C4FEAE37EB3427EEB93
:1033C0000C0B05DAF61A6CEB0E04C0E9046422E07B
:1033D000B21841EBE671C0E90445C7E90021FFF7E7
:1033E00039FF88F31188BFF36F8F836898474FF0D8
:1033F0002003EFF3118883F31288BFF36F8FD9F89E
:103400000030DAF800009B1B5045C446C9F8003074
:10341000CAD1D7E900219A1841EBE3730024C7E928
:103420000023C9F80040FFF7F5FE2146FEF72AFC0D
:1034300088F31188BFF36F8FBDE8F84FFFF76EBDBB
:10344000BC0000209C0300200802002010B54FF0B3
:103450002003EFF3118483F31288BFF36F8FFFF71C
:10346000CFFE064A0346D2E90001181841EBE3718A
:1034700084F31188BFF36F8F10BD00BF08020020D6
:10348000014800F079BA00BF764800002DE9F04FFE
:103490008DB043680293837815469A07804640F1C1
:1034A0000D8100240E78002E00F00A81252E0BD00D
:1034B0004B1C03930134029B414630469847002839
:1034C000C0F2F6800399EDE74E788B1C252E03930E
:1034D000F0D00027B946BB46BBF11F0F38D8A6F184
:1034E0002003102B0AD8DFE803F02A090930090964
:1034F000092109090928092D09091F00A6F130032E
:10350000092B33D92A2E37D11BF0400F55F8043B35
:1035100040F08280002BA7BF4BF0200B9946C3F1EF
:1035200000094BF0280B01E04BF0010B039B13F853
:10353000016B0393002ECFD130E04BF0020B4BF028
:10354000040BF3E74BF0080BF0E74BF0100BEDE743
:10355000BBF17F0F19D8A6F13003092BD2D81BF08D
:10356000400F03D00A2101FB0737DFE70A2101FBE7
:1035700009394BF0200BD9E72E2E06D11BF0400F56
:1035800040F09E804BF0400BD0E76C2E31D02BD812
:10359000682E36D06A2E3CD04C2E3AD0002F46F002
:1035A0002003B8BF2BF04002A3F16501BCBF1FFA96
:1035B00082FB0027022901D9612B2FD1073525F085
:1035C0000705DFF8ACA2083507271BF0080F66D007
:1035D0000AEB070B56465E4563D1A4EB0A0A06EBDD
:1035E0000A02A9EB07096FE1742E9FD07A2E9DD0B5
:1035F000D4E71BF0800F18BF4BF4007B4BF0800B1F
:1036000094E71BF4807F18BF4BF4007B4BF4807B66
:103610008CE74BF4207B89E71F4687E7A6F163011F
:10362000122900F2F080DFE811F013004F00EE00E5
:10363000EE00EE00EE004F00EE00EE00EE00EE00B9
:10364000EE00FE00E900EE00EE001B00EE00AF0011
:1036500055F8043B8DF8183001270DF1180AB4E72E
:1036600055F804AB834BBAF1000F08BF9A461BF024
:10367000400F14BF39464FF0FF31504600F09BFE1B
:103680000746A2E7029B41462020984700280FDB0F
:10369000013EB742F6D34C44A41BB14698E74E46D0
:1036A000F7E716F8010B029B41469847002892DA8B
:1036B00098F8023043F0040388F802304FF0FF34EA
:1036C00020460DB0BDE8F08F1BF0800F34D01BF406
:1036D000007F2CD0073525F00705AA4669685AF8FF
:1036E000080B2BF010050029ADB237DA404261EB30
:1036F000410145F480650DF1180B0A235A4600F08C
:1037000066FEA0EB0B0301936B0662D5019B25F0CF
:1037100001019F4289B240F3A180002E00F0998000
:1037200015F0100240F09C80BB460D4623E0AA46EF
:103730005AF8040BC117D4E7AA461BF4807F5AF845
:10374000041B01D10846F5E71BF4007F15BF48B202
:1037500008B241F3C01141F3C031C2E750EA01039E
:10376000C9D11BF0400FC6D0002FC4D12BF01102DD
:1037700095B2BB46019740F2064115EA01021CBF13
:103780000BF1010B00222CE02BF010021FFA82FB40
:103790000A231BF0800C49D01BF400711DBF0735B4
:1037A00025F00705AA46AA461ABF5AF8080B696809
:1037B0005AF8040B50EA010545D12BF016051BF011
:1037C000400FADB242D0002F40D12BF0170295B27E
:1037D000019715F0100248D0019B002E42D103F151
:1037E000010B29075AD4EB0706D5D9456FDD01999E
:1037F000A9EB0B035F18CB465B4649E04BF0100B7F
:1038000010237826C5E7782B04D1C6F1780343F05E
:103810001003BEE7029B4146252098470028FFF68B
:1038200047AF023447E608230026B2E7AA461BF456
:1038300080715AF8040BBDD01BF400711ABFC0B2DE
:10384000614680B2B6E72BF0060295B20DF1180B77
:1038500054E725F01105ADB2BB468CE70D46B8E73D
:103860003B460D4603F1020BBBE7DDF804B082E7EF
:10387000AB480000A4480000CDE904324146029B59
:10388000202098470028FFF613AF049B059A0133C8
:103890009945F1DCA4EB0B01CC189B460AB3029BC3
:1038A0004146302098470028FFF602AF8EB9013418
:1038B0002744019B391B994224DC1D465DBB019ABC
:1038C000A9EB0B09224455461446914435E0019F6B
:1038D00092E7023441463046029B98470028E7DAD7
:1038E000E6E640F206410D42E2D015F0020F14BFA9
:1038F0002B20202015F4806F04F10104414618BFED
:103900002D20E9E7029B414630209847002804F12A
:103910000104CEDACCE606AB013D4146585D029B80
:1039200098470028CADAC3E6029B41462020984700
:10393000002804F10104FFF6BBAEA9EB0403002B41
:10394000F2DCBFE5704770B403460C46DA880068C5
:1039500019792243056986682B6801248C4012F08E
:10396000010F14BF2343A3432B60336870BC184777
:1039700008447047002070470FB407B504A951F8F8
:10398000040B0191FCF72AFC03B05DF804EB04B0D2
:10399000704700EBC100408840087047F8B5034607
:1039A000FFF7F7FFB0FA80F0C0F11F0003EB800CC7
:1039B000CA00DCF81060171D0C4606328DB256B9ED
:1039C000012101FA00F0D9680143D960CCF8104018
:1039D000DD539D52F8BDF1000431585AD85303EB22
:1039E000C0009E52C5805D52F4E7043A2DE9F041D3
:1039F000CC1D114424F0070421F007010E1BF70829
:103A0000B7FA87F2C2F12405AD004FF00008073580
:103A1000C2F12002ED0804604146A760C4F80C80A2
:103A2000920004F1100000F037FD6B0043F0010339
:103A3000638004EBC5027B1B5900A4F80080518011
:103A4000A21924F83550A2F80280A35304EBC7034F
:103A500029465A8842F001025A802046BDE8F041CA
:103A6000FFF79CBF038B13F0070305D10368002BFE
:103A70000CBF002003207047022B05D1408BB0FA09
:103A800080F0400980007047012B05D10368002BAE
:103A90000CBF0020052070470020704710B50C4671
:103AA00000B111B96FF0150010BD081D00F095F8B8
:103AB0000028F9D1A368032BF6D9F3E72DE9F041EB
:103AC0000D4607461946281D90461E4600F096F8FA
:103AD000044638B13346424629463846A446BDE836
:103AE000F0416047BDE8F08110B44FF02004EFF3DF
:103AF000118284F31288BFF36F8F416110BC0121E2
:103B0000FCF79EBB38B50C46054658B151B10B6861
:103B100043B14B6833B11C22002100F0BDFC2C6185
:103B2000002038BD6FF01500FBE770B505460E4666
:103B3000FFF7B4FF041E15DB4FF02003EFF31182F3
:103B400083F31288BFF36F8F6B8B2C8B4FF6FF7153
:103B50008B4204F0070407D182F31188BFF36F8F03
:103B60006FF00A04204670BD022C0CD101336B8328
:103B700082F31188BFF36F8F002322463146284617
:103B8000FFF79CFFEEE7062C14D8DFE804F00413DF
:103B90001313041A0400002333606B683BB9C5E9B2
:103BA0000066ACB902212846FCF74AFBDAE71E6042
:103BB0006E60F6E782F31188BFF36F8F6FF0040435
:103BC000D0E782F31188BFF36F8F6FF08504C9E7E8
:103BD00082F31188BFF36F8FC4E7034658B1426880
:103BE00002F00302012A03D0032A04D1026812B1B1
:103BF0000020986070476FF0150070474268816040
:103C000002F00302032A4FF0000203460CBF0068D3
:103C100010465A6070477047FEF730BE0146006894
:103C2000FEF72CBE08B5FCF71FFCBDE80840FCF70A
:103C30004DBC00210120FFF7EFBF202809D9B0F1CA
:103C4000004F08D80138B0FA80F0C0F11F004000E2
:103C50007047082070473E2070472DE9FF410E460F
:103C60009846144605460027B74220DA6868C8B16E
:103C7000B8F1000F07D0431E184216D11F2814D9DF
:103C80002A68134211D12B680193FFF7D6FFAB6866
:103C900003430393E3B2072B07D8204601A9FCF79F
:103CA00063FF013401370C35DEE76FF01504204661
:103CB00004B0BDE8F08108B5FDF734F8002008BD78
:103CC0000369C9B20C2201FB0233186C00F0070033
:103CD00070474FF02003EFF3118283F31288BFF394
:103CE0006F8F036803F0C00343F00203036082F3A5
:103CF0001188BFF36F8F704770B5C9B203694FF079
:103D00002004EFF3118584F31288BFF36F8F0C2624
:103D100006FB0134246C14F0C00408D0A24206D083
:103D200085F31188BFF36F8F4FF0FF3070BD06FB36
:103D3000013301221A6485F31188BFF36F8F436842
:103D400003EBC1035B6898470020EFE78022FFF791
:103D5000D3BFF8B5069F0469C9B24FF02005EFF351
:103D6000118685F31288BFF36F8F0C2505FB014484
:103D7000256C05F0070CBCF1010F0CD1276486F30C
:103D80001188BFF36F8FC4E90E23436853F83130B5
:103D900098470020F8BD05F0C005AF4286F31188B2
:103DA000BFF36F8F0CBF6FF077004FF0FF30F1E77C
:103DB00013B580240094FFF7CCFF02B010BD10B4FF
:103DC0000069CBB21C2403FB0400002110BC104787
:103DD0000020FEF7A9B8002000F046B91046FEF713
:103DE000EFBE43685B68D3F810350B600020704766
:103DF00043685B6802EA010021EA0201C3F8080592
:103E0000C3F80C150020704743685B680020C3F8B6
:103E10000815704743685B680020C3F80C157047AD
:103E200043685A68D2F8043521EA03000B40C2F80F
:103E30000805C2F80C350020704710B503695868B2
:103E4000F8B1884219D19C6808685860A14200D135
:103E50009860002008602AB15A680A609A68596020
:103E600002B99960002010E0814206D10868206004
:103E700098688142EDD19C60EBE704460068002819
:103E8000F2D1002AE8D16FF0150010BD30B54368BB
:103E90001360057A446804EBC504A34202D36FF0B3
:103EA000010030BD5C798C4201D00833F0E700207E
:103EB000F7E743681B68D3F88004C3F880047047B1
:103EC000436802691B68D3F8100150B152690020A1
:103ED00012780A70C3F81001D3F8102101221A6079
:103EE00070474FF0FF30704702680346D2F8580120
:103EF00040B95B689B0706D4D2F82001003818BF90
:103F0000012070470120704742681368D3F80413FA
:103F1000C90518D5D3F82011A9B14FF02000EFF34F
:103F2000118180F31288BFF36F8FD3F8200130B175
:103F30000020C3F82001D3F820010120D86081F3CC
:103F40001188BFF36F8F5268D20615D54FF020014C
:103F5000EFF3118281F31288BFF36F8FD3F85811FA
:103F600011B10021C3F800154FF48001C3F8081304
:103F700082F31188BFF36F8F704700F150039B00ED
:103F80009BB203F1804303F5883300221A601B685B
:103F9000704708B50020FCF727FC004700F0EDB89B
:103FA000C00000F1804000F5F830C0F81015C0F8EE
:103FB00014257047F7B5044618B1012824D003B082
:103FC000F0BD4FF080430222C3F808230122DA60DB
:103FD000C3F80401D3F80431064601238DF80730F5
:103FE00042F210754FF08047DCB1012CE7D1D7F8D1
:103FF0000C3403F480338EBB002BE0D00120FFF79C
:10400000CDFF013DF3D1DAE74FF080430022C3F842
:1040100008035860C3F80021D3F800310DF10706FA
:10402000DBE7D7F8183403F480333EB9002BC6D051
:104030000120FFF7B3FF013DF3D1C0E7D7F8182403
:1040400002F003023260002BB9D09DF8070001286E
:10405000B5D1FFF7A3FF013DC6D1B0E7D7F80C24D7
:1040600002F001023270EEE7FFF7A4BFF7B501904E
:1040700001A8DDE9084716461D46FDF7DBFF019B59
:10408000B6F1000C18BF4FF0010C00EB83000B1EC3
:1040900018BF0123002D43EA4C0314BF4FF00C0C52
:1040A0004FF0000C002C43EA0C0314BF4FF4E06CFB
:1040B0004FF0000C002F43EA0C03D0F8002714BF88
:1040C0004FF4403C4FF0000C43EA0C0322EA030398
:1040D00001B109780EB13678760019430DB12D780B
:1040E000AD0031430CB12478240229430FB13F784D
:1040F0003F040C433C43C0F8004703B0F0BD1FB57C
:104100000DF10F03019300238DF80F1000931A4651
:104110001946FFF7ABFF05B05DF804FB38B505465F
:1041200008460C46FDF7D8FFB0B10846FDF7C8FFBA
:1041300090B90846FDF7B8FF2A6801238340C2F80A
:1041400008332A6803B202EB8303D3F8102522F068
:104150000302C3F8102538BD20460021BDE83840D1
:10416000FFF7CDBFFEF73EB8FFF7D8BFFEF752BB53
:1041700008B5FFF7FBFF002008BD08B1FCF704BE3F
:104180007047704740B1C368587810F001001EBFF7
:104190001878B0FA80F04009704700F07DB900F05F
:1041A0006DB9EFF30580003818BF0120704708B5DE
:1041B0004FF02002EFF3118382F31288BFF36F8F69
:1041C000FCF77CFCF4E7D0E9003213605A6000236E
:1041D000C0E90033704708B5FFF7F5FF437B23F0D4
:1041E000020343730023836008BD38B504460D46BF
:1041F000FEF714FE637B43F002036373E5B1A56031
:104200002B689D4209D16B68C4E900531C606C6047
:1042100012E06A689342F6D01B68002BF3D094F941
:104220000E2093F90E108A42F3D09142F1DD5A68C4
:10423000C4E9003214605C6038BD10B54FF0200353
:10424000EFF3118483F31288BFF36F8FFEF7B2FD93
:1042500084F31188BFF36F8F10BD10B5044618307A
:1042600000F08FF84FF02003EFF3118183F31288F1
:10427000BFF36F8F627B12F0100204D081F31188BC
:10428000BFF36F8F10BD2046BDE81040FEF7F6BDAE
:1042900038B504464FF02003EFF3118583F31288FD
:1042A000BFF36F8F437B13F0280F0BD183680BB1E3
:1042B000FFF791FF637B51B903F0FB036373204663
:1042C000FEF778FD85F31188BFF36F8F38BD03F0DB
:1042D000EB03F3E701211838FFF7DABF38B54FF0E9
:1042E0002003EFF3118583F31288BFF36F8F046807
:1042F000A0420DD034B12046FFF76DFF04F1180045
:1043000000F03FF885F31188BFF36F8F204638BD6A
:104310000024F7E7034620B9EFF305820AB9FCF75A
:10432000CFBA83F31188BFF36F8F70474FF020032C
:10433000EFF3118083F31288BFF36F8FFFF7EABFAB
:104340004FF02002EFF3118182F31288BFF36F8FD9
:10435000027BD2070AD581F31188BFF36F8F4040EB
:1043600080F311884FF0040002DF7047437B1B0786
:1043700004D581F31188BFF36F8F70470122FEF7D8
:104380007DBD10B54FF02002EFF3118482F3128847
:10439000BFF36F8F03683BB1FEF75CFF002084F32F
:1043A0001188BFF36F8F10BD6FF01500F7E708B5E8
:1043B000FFF74CF808BD10B5024601448A42134687
:1043C00003D01C780132002CF8D1181A10BDF0B5BA
:1043D000C3F137070446FFB203F01F031046082B52
:1043E000E6B233D0102B3ED06508A40844EA8174AD
:1043F00045EAC1752D194FEA910242EB5102290994
:1044000041EA02716D1842EB1212290A41EA026177
:104410006D1842EB1222290C41EA02416D1842EB61
:104420001242AD1842F10002EC0844EA4274D1088D
:1044300004EB8402A6EB4205EDB2092D0CD9013440
:10444000A5F10A0541F10001EDB212E0E40844EAE9
:10445000417406F00705C908303554EA010200F836
:10446000015BBCD1F0BD240944EA017406F00F05DC
:104470000909092D84BFED19EDB2EDE70A44914217
:1044800000F1FF3300D1704710B511F8014B03F86C
:10449000014F9142F9D110BD02440346934200D12D
:1044A000704703F8011BF9E70148006870470000F6
:0444B00010020020D6
:1044B400710D000000000000150E0000FC44000017
:1044C4007141000000000000D511000024450000E7
:1044D400D51100001045000081150000384500008A
:1044E4008510000000000000211B000000000000F7
:0844F4004D0D00000000000066
:1044FC00044800001047000020470000C4000020C2
:10450C0044020020134800003C4700006C470000A8
:10451C00C6000020980200202148000054470000EB
:10452C006C470000C8000020A4020020374800009F
:10453C0090470000C4470000CA000020240000205F
:10454C00D11F00009B3F000000000000333C000026
:10455C0038450000093F000000000000333C00001B
:10456C0000000000333C000000000000333C000061
:10457C004D2600009B3F000000000000333C000073
:10458C0000000000333C000000000000333C000041
:10459C0000000000333C000000000000333C000031
:1045AC0000000000333C000000000000333C000021
:1045BC0000000000333C000000000000333C000011
:1045CC0000000000333C000000000000B11B0000A4
:1045DC0000000000333C000000000000333C0000F1
:1045EC0000000000333C000000000000333C0000E1
:1045FC0000000000333C000000000000333C0000D1
:10460C0000000000333C000000000000333C0000C0
:10461C0000000000333C000000000000333C0000B0
:10462C0000000000333C000000000000333C0000A0
:10463C0000000000333C000000000000333C000090
:10464C0000000000333C000000000000333C000080
:10465C0000000000333C000000000000333C000070
:10466C0000000000333C000000000000333C000060
:10467C0000000000333C000000000000333C000050
:10468C0000000000333C000000000000333C000040
:10469C0000000000333C000000000000333C000030
:1046AC0000000000333C000000000000333C000020
:1046BC0000000000333C000000000000333C000010
:0446CC00FFFFFFFFEE
:1046D0000338FDD8704700000000002000000000F3
:1046E00000000B0602000000EC4600000000000085
:1046F000F54700002400020700000020FD470000ED
:1047000020000B11D10D0000A10D000000000000E1
:10471000BD0E0000550F0000D13D0000D73D000048
:10472000210F00004D3D0000B13D000000000000E1
:10473000C13C00000000000000000000FF0300007A
:104740000003005000000000010000000060004075
:1047500000000000FFFFFFFF00000050000000000D
:10476000000000000060004000000000691200002E
:10477000E33D0000F13D0000093E0000153E000051
:10478000213E0000D51000003B3E0000000000006C
:10479000002000400200000000000000A0470000D0
:1047A00000200040AC47000001000000B4470000BA
:1047B000040000000600000005000200880101005E
:1047C00087010300C13E0000F5170000B33E000062
:1047D000B4440000B4440000EC440000F444000081
:1047E000FC440000FC4400002564202B2025643A92
:1047F0002025640A00464C4153485F300053524123
:104800004D5F3000636C6F636B403430303030305C
:104810003030006770696F403530303030333030C1
:10482000006770696F403530303030303030000014
:10483000010203040506077561727440343030309C
:10484000323030300000202A2A2A2A2A2A2A2A2A0C
:104850002A2A2A2A2A00015465726D696E616C0049
:104860000000000000005454522052454747455371
:10487000006D61696E002A2A2A20426F6F74696E8A
:1048800067206E524620436F6E6E656374205344FA
:104890004B2076332E352E39392D6E637331202A15
:1048A0002A2A0A00286E756C6C29002A666C6F61D2
:0448B000742A000066
:1048B400244500000B001100244500000D000100F8
:1048C4007539000000000000B73C00000000000043
:1048D400000000000000000000C20100000103000D
:1048E40000000000A2030020A1030020000000003B
:1048F40000000000000000000000000000000000B4
:1049040000000000000000000000000000000000A3
:104914000000000000000000000000000000000093
:104924000000000000000000000000000000000083
:104934000000000000000000000000000000000073
:104944000000000000000000000000000000000063
:104954000000000008000000FF000000000000004C
:104964000300000000000000FFFF0F00BC00002057
:04497400BC00002063
:08497800000000000000000037
:0449800015E015E049
:04000003000007955D
:00000001FF
